{
  "contractName": "MultipleStorage",
  "abi": [
    {
      "constant": false,
      "inputs": [
        {
          "internalType": "string",
          "name": "x",
          "type": "string"
        }
      ],
      "name": "add",
      "outputs": [],
      "payable": false,
      "stateMutability": "nonpayable",
      "type": "function"
    },
    {
      "constant": true,
      "inputs": [],
      "name": "getConcatStr",
      "outputs": [
        {
          "internalType": "string",
          "name": "",
          "type": "string"
        }
      ],
      "payable": false,
      "stateMutability": "view",
      "type": "function"
    },
    {
      "constant": true,
      "inputs": [],
      "name": "get",
      "outputs": [
        {
          "internalType": "string",
          "name": "",
          "type": "string"
        }
      ],
      "payable": false,
      "stateMutability": "view",
      "type": "function"
    }
  ],
  "bytecode": "0x608060405234801561001057600080fd5b506105d1806100206000396000f3fe608060405234801561001057600080fd5b50600436106100415760003560e01c80636d4ce63c1461004657806377eda320146100c9578063b0c8f9dc1461014c575b600080fd5b61004e610207565b6040518080602001828103825283818151815260200191508051906020019080838360005b8381101561008e578082015181840152602081019050610073565b50505050905090810190601f1680156100bb5780820380516001836020036101000a031916815260200191505b509250505060405180910390f35b6100d1610216565b6040518080602001828103825283818151815260200191508051906020019080838360005b838110156101115780820151818401526020810190506100f6565b50505050905090810190601f16801561013e5780820380516001836020036101000a031916815260200191505b509250505060405180910390f35b6102056004803603602081101561016257600080fd5b810190808035906020019064010000000081111561017f57600080fd5b82018360208201111561019157600080fd5b803590602001918460018302840111640100000000831117156101b357600080fd5b91908080601f016020809104026020016040519081016040528093929190818152602001838380828437600081840152601f19601f8201169050808301925050505050505091929192905050506104b5565b005b6060610211610216565b905090565b6060600080905060008090505b60008054905081101561026d576000818154811061023d57fe5b90600052602060002001805460018160011615610100020316600290049050820191508080600101915050610223565b5060008080549050905060608183016040519080825280601f01601f1916602001820160405280156102ae5781602001600182028038833980820191505090505b509050600080905060606040518060400160405280600181526020017f2c000000000000000000000000000000000000000000000000000000000000008152509050606081905060008090505b6000805490508110156104a85760606000828154811061031757fe5b906000526020600020018054600181600116156101000203166002900480601f0160208091040260200160405190810160405280929190818152602001828054600181600116156101000203166002900480156103b55780601f1061038a576101008083540402835291602001916103b5565b820191906000526020600020905b81548152906001019060200180831161039857829003601f168201915b5050505050905060008090505b8151811015610430578181815181106103d757fe5b602001015160f81c60f81b8787815181106103ee57fe5b60200101907effffffffffffffffffffffffffffffffffffffffffffffffffffffffffffff1916908160001a90535060018601955080806001019150506103c2565b50600160008054905003821461049a578260008151811061044d57fe5b602001015160f81c60f81b86868151811061046457fe5b60200101907effffffffffffffffffffffffffffffffffffffffffffffffffffffffffffff1916908160001a9053506001850194505b5080806001019150506102fb565b5083965050505050505090565b60008190806001815401808255809150509060018203906000526020600020016000909192909190915090805190602001906104f29291906104f7565b505050565b828054600181600116156101000203166002900490600052602060002090601f016020900481019282601f1061053857805160ff1916838001178555610566565b82800160010185558215610566579182015b8281111561056557825182559160200191906001019061054a565b5b5090506105739190610577565b5090565b61059991905b8082111561059557600081600090555060010161057d565b5090565b9056fea265627a7a72315820cc8a2852ec43d35ee06c92752801e5dc1f701a6d73d2f08d009948504a31eacc64736f6c63430005100032",
  "source": "// SPDX-License-Identifier: MIT\r\npragma solidity ^0.5.16;\r\n\r\ncontract MultipleStorage {\r\n    string[] ipfs_hashes;\r\n\r\n    function add(string memory x) public {\r\n        ipfs_hashes.push(x);\r\n    }\r\n\r\n    function getConcatStr() public view returns (string memory) {\r\n        uint256 totalLen = 0;\r\n        for (uint256 i = 0; i < ipfs_hashes.length; i++) {\r\n            totalLen += bytes(ipfs_hashes[i]).length;\r\n        }\r\n        uint256 commaCnt = ipfs_hashes.length;\r\n        // string memory concatStr = new string(totalLen+commaCnt);\r\n        bytes memory concatBytes = new bytes(totalLen + commaCnt);\r\n        uint256 ptr = 0;\r\n\r\n        string memory comma = \",\";\r\n        bytes memory commaByte = bytes(comma);\r\n\r\n        for (uint256 i = 0; i < ipfs_hashes.length; i++) {\r\n            bytes memory currByteStr = bytes(ipfs_hashes[i]);\r\n            for (uint256 j = 0; j < currByteStr.length; j++) {\r\n                concatBytes[ptr] = currByteStr[j];\r\n                ptr += 1;\r\n            }\r\n            if (i != ipfs_hashes.length - 1) {\r\n                concatBytes[ptr] = commaByte[0];\r\n                ptr += 1;\r\n            }\r\n        }\r\n        return string(concatBytes);\r\n    }\r\n\r\n    function get() public view returns (string memory) {\r\n        return getConcatStr();\r\n    }\r\n}\r\n",
  "sourcePath": "C:\\Users\\asus\\myfiles\\semVII\\BCT\\Projects\\ipfs_image_uploader_v2\\contracts\\MultipleStorage.sol",
  "compiler": {
    "name": "solc",
    "version": "0.5.16+commit.9c3226ce.Emscripten.clang"
  },
  "schemaVersion": "3.4.3",
  "updatedAt": "2021-12-13T09:54:15.745Z",
  "networkType": "ethereum",
  "devdoc": {
    "methods": {}
  },
  "userdoc": {
    "methods": {}
  }
}